:100000000200F0020098780179007A007B237D0BD2
:100010007C001200B1792D8790752009E5207002CF
:10002000806F752200E52224F65002800280028053
:100030005A7423A922780029F987A0752100E521A7
:10004000249C500280028002800E80000521E52160
:10005000249C5002800280F27423A920780029F9A0
:1000600087A0752100E521249C5002800280028037
:100070000E80000521E521249C5002800280F205BB
:1000800022E52224F65002800280A61520E5207089
:1000900091798787A080FE22020006898288838B5F
:1000A00000EC4D6036E4E0F608A31DBDFFF31C80B4
:1000B000F0B800118B00EC4D6021E7F609081DBD7A
:1000C000FFF41C80F1898288838B00EC4D600CE486
:1000D00093F608A31DBDFFF31C80F022E4F5D07554
:1000E000812E78207A0EF608DAFC12000302000056
:0300F0000200DC2F
:0B0100009080F8829299B0A4F9C0FF33
:00000001FF
